{
  "contractName": "Bank",
  "abi": [
    {
      "constant": true,
      "inputs": [],
      "name": "MinBalance",
      "outputs": [
        {
          "name": "",
          "type": "uint256"
        }
      ],
      "payable": false,
      "stateMutability": "view",
      "type": "function"
    },
    {
      "constant": true,
      "inputs": [],
      "name": "NoOfUsers",
      "outputs": [
        {
          "name": "",
          "type": "uint256"
        }
      ],
      "payable": false,
      "stateMutability": "view",
      "type": "function"
    },
    {
      "constant": true,
      "inputs": [],
      "name": "TransferLimit",
      "outputs": [
        {
          "name": "",
          "type": "uint256"
        }
      ],
      "payable": false,
      "stateMutability": "view",
      "type": "function"
    },
    {
      "constant": true,
      "inputs": [],
      "name": "WithdrawLimit",
      "outputs": [
        {
          "name": "",
          "type": "uint256"
        }
      ],
      "payable": false,
      "stateMutability": "view",
      "type": "function"
    },
    {
      "constant": true,
      "inputs": [
        {
          "name": "",
          "type": "address"
        }
      ],
      "name": "Users",
      "outputs": [
        {
          "name": "UserNo",
          "type": "uint256"
        },
        {
          "name": "SecondUser",
          "type": "bool"
        },
        {
          "name": "SecondUserAddress",
          "type": "address"
        },
        {
          "name": "UserName",
          "type": "string"
        },
        {
          "name": "balance",
          "type": "uint256"
        },
        {
          "name": "FirstUserActive",
          "type": "bool"
        },
        {
          "name": "SecondUserActive",
          "type": "bool"
        },
        {
          "name": "AccountExists",
          "type": "bool"
        }
      ],
      "payable": false,
      "stateMutability": "view",
      "type": "function"
    },
    {
      "constant": true,
      "inputs": [],
      "name": "DepositLimit",
      "outputs": [
        {
          "name": "",
          "type": "uint256"
        }
      ],
      "payable": false,
      "stateMutability": "view",
      "type": "function"
    },
    {
      "inputs": [],
      "payable": false,
      "stateMutability": "nonpayable",
      "type": "constructor"
    }
  ],
  "bytecode": "0x6080604052600060015534801561001557600080fd5b50336000806101000a81548173ffffffffffffffffffffffffffffffffffffffff021916908373ffffffffffffffffffffffffffffffffffffffff1602179055506103fb806100656000396000f300608060405260043610610078576000357c0100000000000000000000000000000000000000000000000000000000900463ffffffff1680630bba86671461007d5780635faf8e69146100a8578063638c2b0f146100d35780637e527c29146100fe57806399b956a014610129578063cdfde52614610252575b600080fd5b34801561008957600080fd5b5061009261027d565b6040518082815260200191505060405180910390f35b3480156100b457600080fd5b506100bd610283565b6040518082815260200191505060405180910390f35b3480156100df57600080fd5b506100e8610289565b6040518082815260200191505060405180910390f35b34801561010a57600080fd5b5061011361028f565b6040518082815260200191505060405180910390f35b34801561013557600080fd5b5061016a600480360381019080803573ffffffffffffffffffffffffffffffffffffffff169060200190929190505050610295565b60405180898152602001881515151581526020018773ffffffffffffffffffffffffffffffffffffffff1673ffffffffffffffffffffffffffffffffffffffff16815260200180602001868152602001851515151581526020018415151515815260200183151515158152602001828103825287818151815260200191508051906020019080838360005b838110156102105780820151818401526020810190506101f5565b50505050905090810190601f16801561023d5780820380516001836020036101000a031916815260200191505b50995050505050505050505060405180910390f35b34801561025e57600080fd5b506102676103c9565b6040518082815260200191505060405180910390f35b60025481565b60015481565b60055481565b60045481565b60066020528060005260406000206000915090508060000154908060010160009054906101000a900460ff16908060010160019054906101000a900473ffffffffffffffffffffffffffffffffffffffff1690806002018054600181600116156101000203166002900480601f0160208091040260200160405190810160405280929190818152602001828054600181600116156101000203166002900480156103805780601f1061035557610100808354040283529160200191610380565b820191906000526020600020905b81548152906001019060200180831161036357829003601f168201915b5050505050908060040154908060050160009054906101000a900460ff16908060050160019054906101000a900460ff16908060050160029054906101000a900460ff16905088565b600354815600a165627a7a72305820029a1f6cff0c10528b249cf24b3587d2ae432f2b67e1b000e249f10abd521ede0029",
  "source": "pragma solidity ^0.4.0;\n\ncontract Bank {\n    address BankManager;\n    uint256 public NoOfUsers=0;\n    uint256 public MinBalance;\n    uint256 public DepositLimit;\n    uint256 public WithdrawLimit;\n    uint256 public TransferLimit;\n\n     function Bank()  {\n        BankManager=msg.sender;\n    }\n\n    struct Account {\n        uint256 UserNo;\n        bool SecondUser;\n        address SecondUserAddress;\n        string UserName;\n        uint256[] FixedDeposit;\n        uint256 balance;\n        bool FirstUserActive;\n        bool SecondUserActive;\n        bool AccountExists;\n    }\n\n    mapping (address => Account) public Users;\n    address[]  UserList;\n\n}\n\n\ncontract UserAccountManage is Bank {\n    function UserAccountManage(uint256 w, uint256 x, uint256 y, uint256 z)  {\n        MinBalance=w;\n        DepositLimit=x;\n        WithdrawLimit=y;\n        TransferLimit=z;\n    }\n\n    /* Bank functions\n       WhichUser=1 is for the first user\n       WhichUser=2 is for the second user\n    */\n\n    function AddUser(address _add1, address _add2, string s1, string s2, uint256 x){\n        if (msg.sender!=BankManager){\n            revert();\n        }\n        if (x >= MinBalance){\n            var user=Users[_add1];\n            user.balance=x;\n            user.UserName=s1;\n            user.FirstUserActive=true;\n            user.AccountExists=true;\n            UserList.push(_add1)-1;\n            if (_add2!=0x0){\n                user.SecondUser=true;\n                user.SecondUserAddress=_add2;\n                //user.UserName.push(s2);\n                user.SecondUserActive=true;\n            }\n            else{\n                user.SecondUser=false;\n            }\n            NoOfUsers=NoOfUsers+1;\n            user.UserNo=NoOfUsers;\n        }\n        else{\n            revert();\n        }\n    }\n\n    function DeleteUser(uint256 WhichUser) returns (bool){\n        address temp=GetUser(WhichUser);\n        if (WhichUser==1){\n            Users[temp].FirstUserActive=false;\n        }\n        else{\n            Users[temp].SecondUserActive=false;\n        }\n        if(Users[temp].FirstUserActive==false && Users[temp].SecondUserActive==false){\n            uint256 i;\n            for (i=0; i<UserList.length;i++){\n                if (temp == UserList[i]){\n                    break;\n                }\n            }\n            UserList=Remove(i);\n            NoOfUsers=NoOfUsers-1;\n            return true;\n        }\n        else{\n            return false;\n        }\n\n    }\n\n    function CheckMinBalance(address index) view returns (bool){\n        if (Users[index].balance < MinBalance){\n            return false;\n        }\n        return true;\n    }\n\n    function Deposit(uint256 val, uint256 WhichUser) returns (bool){\n        if (val > DepositLimit){\n            return false;\n        }\n        address index=GetUser(WhichUser);\n        if (IsUserActive(index,WhichUser)){\n            Users[index].balance+=val;\n            return true;\n        }\n        else{\n            return false;\n        }\n    }\n\n    function Withdraw(uint256 val, uint256 WhichUser) returns (bool) {\n        address index=GetUser(WhichUser);\n        if (IsUserActive(index, WhichUser)==false && val > TransferLimit){\n            return false;\n        }\n        if (Users[index].balance >= val && val <= WithdrawLimit){\n            Users[index].balance-=val;\n        }\n        else{\n            return false;\n        }\n        if (CheckMinBalance(index)){\n            return true;\n        }\n        else{\n            Users[index].balance+=val;\n            return false;\n        }\n    }\n\n    function Transfer(uint256 val, uint256 WhichUser, address To) returns (bool){\n        address index=GetUser(WhichUser);\n        if (IsUserActive(index, WhichUser)==false){\n            return false;\n        }\n        if (Users[To].AccountExists && Users[index].balance>=val){\n            Users[index].balance-=val;\n            if (CheckMinBalance(index)){\n                Users[To].balance+=val;\n                return true;\n            }\n            else{\n                Users[index].balance+=val;\n                return false;\n            }\n        }\n    }\n\n    function AddFixedDeposit (uint256 WhichUser, uint256 val) returns (bool){\n        address index=GetUser(WhichUser);\n        if (IsUserActive(index, WhichUser)==false){\n            return false;\n        }\n        Users[index].FixedDeposit.push(val);\n    }\n\n    /* Account information */\n\n    function ListOfUsers() public returns (address[]){\n        if (msg.sender==BankManager){\n            return UserList;\n        }\n    }\n\n    function DisplayAccountBalance(address i) public returns(uint256){\n        /*address index=GetUser(WhichUser);\n        if (IsUserActive(index, WhichUser)==false){\n            return;\n        }*/\n        return Users[i].balance;\n    }\n\n    function DisplayFixedDeposits(uint256 WhichUser) public returns(uint256[]){\n        /*address index=GetUser(WhichUser);\n        if (IsUserActive(index, WhichUser)==false){\n            return;\n        }*/\n        return Users[msg.sender].FixedDeposit;\n    }\n\n    /* helper functions */\n\n    //function to get Account information from second user address\n    function GetAccount(address data) returns (address){\n        for (uint256 i=0; i<NoOfUsers; i++){\n            if (data == Users[UserList[i]].SecondUserAddress){\n                return UserList[i];\n                break;\n            }\n        }\n        return 0x0;\n    }\n\n    //function for first user confirmation\n    function FirstUserConfirmation(address i) view returns (bool){\n        if (msg.sender == i){\n            return true;\n        }\n        else{\n            return false;\n        }\n    }\n\n    //function for second user confirmation\n    function SecondUserConfirmation(address i) view returns (bool){\n        if (msg.sender == Users[i].SecondUserAddress || Users[i].SecondUserAddress == 0x0){\n            return true;\n        }\n        else{\n            return false;\n        }\n    }\n\n    //fuction to rescale array\n    function Remove(uint index)  returns(address[]) {\n        if (index >= UserList.length) return;\n\n        for (uint i = index; i<UserList.length-1; i++){\n            UserList[i] = UserList[i+1];\n        }\n        delete UserList[UserList.length-1];\n        UserList.length--;\n        return UserList;\n    }\n\n    //function to generate right User\n    function GetUser(uint256 i) returns (address){\n        address index;\n        if (i==1){\n            index=msg.sender;\n        }\n        else{\n            index=GetAccount(msg.sender);\n        }\n        return index;\n    }\n\n    //function to see if the user is active\n    function IsUserActive(address i, uint256 x) returns (bool){\n        if (x == 1){\n            if (Users[i].FirstUserActive == true){\n                return true;\n            }\n            else{\n                return false;\n            }\n        }\n        else{\n            if (Users[i].SecondUserActive == true){\n                return true;\n            }\n            else{\n                return false;\n            }\n        }\n    }\n}\n",
  "sourcePath": "/home/sankarshan/Test/Bank/contracts/Bank.sol",
  "compiler": {
    "name": "solc",
    "version": "0.4.24+commit.e67f0147.Emscripten.clang"
  },
  "schemaVersion": "2.0.0",
  "updatedAt": "2018-11-01T18:07:34.117Z"
}