{
  "contractName": "UserAccountManage",
  "abi": [
    {
      "constant": true,
      "inputs": [],
      "name": "MinBalance",
      "outputs": [
        {
          "name": "",
          "type": "uint256"
        }
      ],
      "payable": false,
      "stateMutability": "view",
      "type": "function"
    },
    {
      "constant": true,
      "inputs": [],
      "name": "NoOfUsers",
      "outputs": [
        {
          "name": "",
          "type": "uint256"
        }
      ],
      "payable": false,
      "stateMutability": "view",
      "type": "function"
    },
    {
      "constant": true,
      "inputs": [],
      "name": "TransferLimit",
      "outputs": [
        {
          "name": "",
          "type": "uint256"
        }
      ],
      "payable": false,
      "stateMutability": "view",
      "type": "function"
    },
    {
      "constant": true,
      "inputs": [],
      "name": "WithdrawLimit",
      "outputs": [
        {
          "name": "",
          "type": "uint256"
        }
      ],
      "payable": false,
      "stateMutability": "view",
      "type": "function"
    },
    {
      "constant": true,
      "inputs": [
        {
          "name": "",
          "type": "address"
        }
      ],
      "name": "Users",
      "outputs": [
        {
          "name": "UserNo",
          "type": "uint256"
        },
        {
          "name": "SecondUser",
          "type": "bool"
        },
        {
          "name": "SecondUserAddress",
          "type": "address"
        },
        {
          "name": "UserName",
          "type": "string"
        },
        {
          "name": "balance",
          "type": "uint256"
        },
        {
          "name": "FirstUserActive",
          "type": "bool"
        },
        {
          "name": "SecondUserActive",
          "type": "bool"
        },
        {
          "name": "AccountExists",
          "type": "bool"
        }
      ],
      "payable": false,
      "stateMutability": "view",
      "type": "function"
    },
    {
      "constant": true,
      "inputs": [],
      "name": "DepositLimit",
      "outputs": [
        {
          "name": "",
          "type": "uint256"
        }
      ],
      "payable": false,
      "stateMutability": "view",
      "type": "function"
    },
    {
      "inputs": [
        {
          "name": "w",
          "type": "uint256"
        },
        {
          "name": "x",
          "type": "uint256"
        },
        {
          "name": "y",
          "type": "uint256"
        },
        {
          "name": "z",
          "type": "uint256"
        }
      ],
      "payable": false,
      "stateMutability": "nonpayable",
      "type": "constructor"
    },
    {
      "constant": false,
      "inputs": [
        {
          "name": "_add1",
          "type": "address"
        },
        {
          "name": "_add2",
          "type": "address"
        },
        {
          "name": "s1",
          "type": "string"
        },
        {
          "name": "s2",
          "type": "string"
        },
        {
          "name": "x",
          "type": "uint256"
        }
      ],
      "name": "AddUser",
      "outputs": [],
      "payable": false,
      "stateMutability": "nonpayable",
      "type": "function"
    },
    {
      "constant": false,
      "inputs": [
        {
          "name": "WhichUser",
          "type": "uint256"
        }
      ],
      "name": "DeleteUser",
      "outputs": [
        {
          "name": "",
          "type": "bool"
        }
      ],
      "payable": false,
      "stateMutability": "nonpayable",
      "type": "function"
    },
    {
      "constant": true,
      "inputs": [
        {
          "name": "index",
          "type": "address"
        }
      ],
      "name": "CheckMinBalance",
      "outputs": [
        {
          "name": "",
          "type": "bool"
        }
      ],
      "payable": false,
      "stateMutability": "view",
      "type": "function"
    },
    {
      "constant": false,
      "inputs": [
        {
          "name": "val",
          "type": "uint256"
        },
        {
          "name": "WhichUser",
          "type": "uint256"
        }
      ],
      "name": "Deposit",
      "outputs": [
        {
          "name": "",
          "type": "bool"
        }
      ],
      "payable": false,
      "stateMutability": "nonpayable",
      "type": "function"
    },
    {
      "constant": false,
      "inputs": [
        {
          "name": "val",
          "type": "uint256"
        },
        {
          "name": "WhichUser",
          "type": "uint256"
        }
      ],
      "name": "Withdraw",
      "outputs": [
        {
          "name": "",
          "type": "bool"
        }
      ],
      "payable": false,
      "stateMutability": "nonpayable",
      "type": "function"
    },
    {
      "constant": false,
      "inputs": [
        {
          "name": "val",
          "type": "uint256"
        },
        {
          "name": "WhichUser",
          "type": "uint256"
        },
        {
          "name": "To",
          "type": "address"
        }
      ],
      "name": "Transfer",
      "outputs": [
        {
          "name": "",
          "type": "bool"
        }
      ],
      "payable": false,
      "stateMutability": "nonpayable",
      "type": "function"
    },
    {
      "constant": false,
      "inputs": [
        {
          "name": "WhichUser",
          "type": "uint256"
        },
        {
          "name": "val",
          "type": "uint256"
        }
      ],
      "name": "AddFixedDeposit",
      "outputs": [
        {
          "name": "",
          "type": "bool"
        }
      ],
      "payable": false,
      "stateMutability": "nonpayable",
      "type": "function"
    },
    {
      "constant": false,
      "inputs": [],
      "name": "ListOfUsers",
      "outputs": [
        {
          "name": "",
          "type": "address[]"
        }
      ],
      "payable": false,
      "stateMutability": "nonpayable",
      "type": "function"
    },
    {
      "constant": false,
      "inputs": [
        {
          "name": "i",
          "type": "address"
        }
      ],
      "name": "DisplayAccountBalance",
      "outputs": [
        {
          "name": "",
          "type": "uint256"
        }
      ],
      "payable": false,
      "stateMutability": "nonpayable",
      "type": "function"
    },
    {
      "constant": false,
      "inputs": [
        {
          "name": "WhichUser",
          "type": "uint256"
        }
      ],
      "name": "DisplayFixedDeposits",
      "outputs": [
        {
          "name": "",
          "type": "uint256[]"
        }
      ],
      "payable": false,
      "stateMutability": "nonpayable",
      "type": "function"
    },
    {
      "constant": false,
      "inputs": [
        {
          "name": "data",
          "type": "address"
        }
      ],
      "name": "GetAccount",
      "outputs": [
        {
          "name": "",
          "type": "address"
        }
      ],
      "payable": false,
      "stateMutability": "nonpayable",
      "type": "function"
    },
    {
      "constant": true,
      "inputs": [
        {
          "name": "i",
          "type": "address"
        }
      ],
      "name": "FirstUserConfirmation",
      "outputs": [
        {
          "name": "",
          "type": "bool"
        }
      ],
      "payable": false,
      "stateMutability": "view",
      "type": "function"
    },
    {
      "constant": true,
      "inputs": [
        {
          "name": "i",
          "type": "address"
        }
      ],
      "name": "SecondUserConfirmation",
      "outputs": [
        {
          "name": "",
          "type": "bool"
        }
      ],
      "payable": false,
      "stateMutability": "view",
      "type": "function"
    },
    {
      "constant": false,
      "inputs": [
        {
          "name": "index",
          "type": "uint256"
        }
      ],
      "name": "Remove",
      "outputs": [
        {
          "name": "",
          "type": "address[]"
        }
      ],
      "payable": false,
      "stateMutability": "nonpayable",
      "type": "function"
    },
    {
      "constant": false,
      "inputs": [
        {
          "name": "i",
          "type": "uint256"
        }
      ],
      "name": "GetUser",
      "outputs": [
        {
          "name": "",
          "type": "address"
        }
      ],
      "payable": false,
      "stateMutability": "nonpayable",
      "type": "function"
    },
    {
      "constant": false,
      "inputs": [
        {
          "name": "i",
          "type": "address"
        },
        {
          "name": "x",
          "type": "uint256"
        }
      ],
      "name": "IsUserActive",
      "outputs": [
        {
          "name": "",
          "type": "bool"
        }
      ],
      "payable": false,
      "stateMutability": "nonpayable",
      "type": "function"
    }
  ],
  "bytecode": "0x6080604052600060015534801561001557600080fd5b50604051608080611eb783398101806040528101908080519060200190929190805190602001909291908051906020019092919080519060200190929190505050336000806101000a81548173ffffffffffffffffffffffffffffffffffffffff021916908373ffffffffffffffffffffffffffffffffffffffff1602179055508360028190555082600381905550816004819055508060058190555050505050611df2806100c56000396000f300608060405260043610610128576000357c0100000000000000000000000000000000000000000000000000000000900463ffffffff168063070f1d521461012d5780630bba86671461019a5780631772f1de146101c55780631999fc0714610214578063283b538b146102595780633d902559146102b4578063476e4aa41461032357806356ca301a146103a55780635bddc6a7146103f45780635f5cc1361461044f5780635faf8e69146104a6578063638c2b0f146104d157806367a00ff3146104fc5780636cde23fb146105685780637e527c29146105cd57806381e1282b146105f857806399b956a0146106f1578063a3af609b1461081a578063c8aacecd14610869578063cdfde526146108eb578063d367414814610916578063e7c2458d14610999575b600080fd5b34801561013957600080fd5b50610158600480360381019080803590602001909291905050506109f4565b604051808273ffffffffffffffffffffffffffffffffffffffff1673ffffffffffffffffffffffffffffffffffffffff16815260200191505060405180910390f35b3480156101a657600080fd5b506101af610a1d565b6040518082815260200191505060405180910390f35b3480156101d157600080fd5b506101fa6004803603810190808035906020019092919080359060200190929190505050610a23565b604051808215151515815260200191505060405180910390f35b34801561022057600080fd5b5061023f60048036038101908080359060200190929190505050610ac4565b604051808215151515815260200191505060405180910390f35b34801561026557600080fd5b5061029a600480360381019080803573ffffffffffffffffffffffffffffffffffffffff169060200190929190505050610d24565b604051808215151515815260200191505060405180910390f35b3480156102c057600080fd5b506103096004803603810190808035906020019092919080359060200190929190803573ffffffffffffffffffffffffffffffffffffffff169060200190929190505050610d85565b604051808215151515815260200191505060405180910390f35b34801561032f57600080fd5b5061034e60048036038101908080359060200190929190505050610f6e565b6040518080602001828103825283818151815260200191508051906020019060200280838360005b83811015610391578082015181840152602081019050610376565b505050509050019250505060405180910390f35b3480156103b157600080fd5b506103da6004803603810190808035906020019092919080359060200190929190505050611124565b604051808215151515815260200191505060405180910390f35b34801561040057600080fd5b50610435600480360381019080803573ffffffffffffffffffffffffffffffffffffffff169060200190929190505050611288565b604051808215151515815260200191505060405180910390f35b34801561045b57600080fd5b50610490600480360381019080803573ffffffffffffffffffffffffffffffffffffffff1690602001909291905050506112d1565b6040518082815260200191505060405180910390f35b3480156104b257600080fd5b506104bb61131d565b6040518082815260200191505060405180910390f35b3480156104dd57600080fd5b506104e6611323565b6040518082815260200191505060405180910390f35b34801561050857600080fd5b50610511611329565b6040518080602001828103825283818151815260200191508051906020019060200280838360005b83811015610554578082015181840152602081019050610539565b505050509050019250505060405180910390f35b34801561057457600080fd5b506105b3600480360381019080803573ffffffffffffffffffffffffffffffffffffffff16906020019092919080359060200190929190505050611412565b604051808215151515815260200191505060405180910390f35b3480156105d957600080fd5b506105e26114fb565b6040518082815260200191505060405180910390f35b34801561060457600080fd5b506106ef600480360381019080803573ffffffffffffffffffffffffffffffffffffffff169060200190929190803573ffffffffffffffffffffffffffffffffffffffff169060200190929190803590602001908201803590602001908080601f0160208091040260200160405190810160405280939291908181526020018383808284378201915050505050509192919290803590602001908201803590602001908080601f016020809104026020016040519081016040528093929190818152602001838380828437820191505050505050919291929080359060200190929190505050611501565b005b3480156106fd57600080fd5b50610732600480360381019080803573ffffffffffffffffffffffffffffffffffffffff169060200190929190505050611757565b60405180898152602001881515151581526020018773ffffffffffffffffffffffffffffffffffffffff1673ffffffffffffffffffffffffffffffffffffffff16815260200180602001868152602001851515151581526020018415151515815260200183151515158152602001828103825287818151815260200191508051906020019080838360005b838110156107d85780820151818401526020810190506107bd565b50505050905090810190601f1680156108055780820380516001836020036101000a031916815260200191505b50995050505050505050505060405180910390f35b34801561082657600080fd5b5061084f600480360381019080803590602001909291908035906020019092919050505061188b565b604051808215151515815260200191505060405180910390f35b34801561087557600080fd5b5061089460048036038101908080359060200190929190505050611920565b6040518080602001828103825283818151815260200191508051906020019060200280838360005b838110156108d75780820151818401526020810190506108bc565b505050509050019250505060405180910390f35b3480156108f757600080fd5b506109006119ba565b6040518082815260200191505060405180910390f35b34801561092257600080fd5b50610957600480360381019080803573ffffffffffffffffffffffffffffffffffffffff1690602001909291905050506119c0565b604051808273ffffffffffffffffffffffffffffffffffffffff1673ffffffffffffffffffffffffffffffffffffffff16815260200191505060405180910390f35b3480156109a557600080fd5b506109da600480360381019080803573ffffffffffffffffffffffffffffffffffffffff169060200190929190505050611afa565b604051808215151515815260200191505060405180910390f35b6000806001831415610a0857339050610a14565b610a11336119c0565b90505b80915050919050565b60025481565b600080610a2f846109f4565b905060001515610a3f8286611412565b15151415610a505760009150610abd565b600660008273ffffffffffffffffffffffffffffffffffffffff1673ffffffffffffffffffffffffffffffffffffffff1681526020019081526020016000206003018390806001815401808255809150509060018203906000526020600020016000909192909190915055505b5092915050565b6000806000610ad2846109f4565b91506001841415610b3d576000600660008473ffffffffffffffffffffffffffffffffffffffff1673ffffffffffffffffffffffffffffffffffffffff16815260200190815260200160002060050160006101000a81548160ff021916908315150217905550610b99565b6000600660008473ffffffffffffffffffffffffffffffffffffffff1673ffffffffffffffffffffffffffffffffffffffff16815260200190815260200160002060050160016101000a81548160ff0219169083151502179055505b60001515600660008473ffffffffffffffffffffffffffffffffffffffff1673ffffffffffffffffffffffffffffffffffffffff16815260200190815260200160002060050160009054906101000a900460ff161515148015610c4f575060001515600660008473ffffffffffffffffffffffffffffffffffffffff1673ffffffffffffffffffffffffffffffffffffffff16815260200190815260200160002060050160019054906101000a900460ff161515145b15610d1857600090505b600780549050811015610ce557600781815481101515610c7557fe5b9060005260206000200160009054906101000a900473ffffffffffffffffffffffffffffffffffffffff1673ffffffffffffffffffffffffffffffffffffffff168273ffffffffffffffffffffffffffffffffffffffff161415610cd857610ce5565b8080600101915050610c59565b610cee81610f6e565b60079080519060200190610d03929190611c28565b50600180540360018190555060019250610d1d565b600092505b5050919050565b6000600254600660008473ffffffffffffffffffffffffffffffffffffffff1673ffffffffffffffffffffffffffffffffffffffff168152602001908152602001600020600401541015610d7b5760009050610d80565b600190505b919050565b600080610d91846109f4565b905060001515610da18286611412565b15151415610db25760009150610f66565b600660008473ffffffffffffffffffffffffffffffffffffffff1673ffffffffffffffffffffffffffffffffffffffff16815260200190815260200160002060050160029054906101000a900460ff168015610e50575084600660008373ffffffffffffffffffffffffffffffffffffffff1673ffffffffffffffffffffffffffffffffffffffff1681526020019081526020016000206004015410155b15610f655784600660008373ffffffffffffffffffffffffffffffffffffffff1673ffffffffffffffffffffffffffffffffffffffff16815260200190815260200160002060040160008282540392505081905550610eae81610d24565b15610f0c5784600660008573ffffffffffffffffffffffffffffffffffffffff1673ffffffffffffffffffffffffffffffffffffffff1681526020019081526020016000206004016000828254019250508190555060019150610f66565b84600660008373ffffffffffffffffffffffffffffffffffffffff1673ffffffffffffffffffffffffffffffffffffffff1681526020019081526020016000206004016000828254019250508190555060009150610f66565b5b509392505050565b6060600060078054905083101515610f855761111e565b8290505b60016007805490500381101561103a57600760018201815481101515610fab57fe5b9060005260206000200160009054906101000a900473ffffffffffffffffffffffffffffffffffffffff16600782815481101515610fe557fe5b9060005260206000200160006101000a81548173ffffffffffffffffffffffffffffffffffffffff021916908373ffffffffffffffffffffffffffffffffffffffff1602179055508080600101915050610f89565b600760016007805490500381548110151561105157fe5b9060005260206000200160006101000a81549073ffffffffffffffffffffffffffffffffffffffff021916905560078054809190600190036110939190611cb2565b50600780548060200260200160405190810160405280929190818152602001828054801561111657602002820191906000526020600020905b8160009054906101000a900473ffffffffffffffffffffffffffffffffffffffff1673ffffffffffffffffffffffffffffffffffffffff16815260200190600101908083116110cc575b505050505091505b50919050565b600080611130836109f4565b9050600015156111408285611412565b1515148015611150575060055484115b1561115e5760009150611281565b83600660008373ffffffffffffffffffffffffffffffffffffffff1673ffffffffffffffffffffffffffffffffffffffff16815260200190815260200160002060040154101580156111b257506004548411155b1561120c5783600660008373ffffffffffffffffffffffffffffffffffffffff1673ffffffffffffffffffffffffffffffffffffffff16815260200190815260200160002060040160008282540392505081905550611215565b60009150611281565b61121e81610d24565b1561122c5760019150611281565b83600660008373ffffffffffffffffffffffffffffffffffffffff1673ffffffffffffffffffffffffffffffffffffffff16815260200190815260200160002060040160008282540192505081905550600091505b5092915050565b60008173ffffffffffffffffffffffffffffffffffffffff163373ffffffffffffffffffffffffffffffffffffffff1614156112c757600190506112cc565b600090505b919050565b6000600660008373ffffffffffffffffffffffffffffffffffffffff1673ffffffffffffffffffffffffffffffffffffffff168152602001908152602001600020600401549050919050565b60015481565b60055481565b60606000809054906101000a900473ffffffffffffffffffffffffffffffffffffffff1673ffffffffffffffffffffffffffffffffffffffff163373ffffffffffffffffffffffffffffffffffffffff16141561140e57600780548060200260200160405190810160405280929190818152602001828054801561140257602002820191906000526020600020905b8160009054906101000a900473ffffffffffffffffffffffffffffffffffffffff1673ffffffffffffffffffffffffffffffffffffffff16815260200190600101908083116113b8575b5050505050905061140f565b5b90565b6000600182141561148b5760011515600660008573ffffffffffffffffffffffffffffffffffffffff1673ffffffffffffffffffffffffffffffffffffffff16815260200190815260200160002060050160009054906101000a900460ff161515141561148257600190506114f5565b600090506114f5565b60011515600660008573ffffffffffffffffffffffffffffffffffffffff1673ffffffffffffffffffffffffffffffffffffffff16815260200190815260200160002060050160019054906101000a900460ff16151514156114f057600190506114f5565b600090505b92915050565b60045481565b60008060009054906101000a900473ffffffffffffffffffffffffffffffffffffffff1673ffffffffffffffffffffffffffffffffffffffff163373ffffffffffffffffffffffffffffffffffffffff1614151561155e57600080fd5b6002548210151561174a57600660008773ffffffffffffffffffffffffffffffffffffffff1673ffffffffffffffffffffffffffffffffffffffff1681526020019081526020016000209050818160040181905550838160020190805190602001906115cb929190611cde565b5060018160050160006101000a81548160ff02191690831515021790555060018160050160026101000a81548160ff021916908315150217905550600160078790806001815401808255809150509060018203906000526020600020016000909192909190916101000a81548173ffffffffffffffffffffffffffffffffffffffff021916908373ffffffffffffffffffffffffffffffffffffffff160217905550505060008573ffffffffffffffffffffffffffffffffffffffff161415156117115760018160010160006101000a81548160ff021916908315150217905550848160010160016101000a81548173ffffffffffffffffffffffffffffffffffffffff021916908373ffffffffffffffffffffffffffffffffffffffff16021790555060018160050160016101000a81548160ff02191690831515021790555061172f565b60008160010160006101000a81548160ff0219169083151502179055505b6001805401600181905550600154816000018190555061174f565b600080fd5b505050505050565b60066020528060005260406000206000915090508060000154908060010160009054906101000a900460ff16908060010160019054906101000a900473ffffffffffffffffffffffffffffffffffffffff1690806002018054600181600116156101000203166002900480601f0160208091040260200160405190810160405280929190818152602001828054600181600116156101000203166002900480156118425780601f1061181757610100808354040283529160200191611842565b820191906000526020600020905b81548152906001019060200180831161182557829003601f168201915b5050505050908060040154908060050160009054906101000a900460ff16908060050160019054906101000a900460ff16908060050160029054906101000a900460ff16905088565b6000806003548411156118a15760009150611919565b6118aa836109f4565b90506118b68184611412565b156119145783600660008373ffffffffffffffffffffffffffffffffffffffff1673ffffffffffffffffffffffffffffffffffffffff1681526020019081526020016000206004016000828254019250508190555060019150611919565b600091505b5092915050565b6060600660003373ffffffffffffffffffffffffffffffffffffffff1673ffffffffffffffffffffffffffffffffffffffff1681526020019081526020016000206003018054806020026020016040519081016040528092919081815260200182805480156119ae57602002820191906000526020600020905b81548152602001906001019080831161199a575b50505050509050919050565b60035481565b600080600090505b600154811015611aef57600660006007838154811015156119e557fe5b9060005260206000200160009054906101000a900473ffffffffffffffffffffffffffffffffffffffff1673ffffffffffffffffffffffffffffffffffffffff1673ffffffffffffffffffffffffffffffffffffffff16815260200190815260200160002060010160019054906101000a900473ffffffffffffffffffffffffffffffffffffffff1673ffffffffffffffffffffffffffffffffffffffff168373ffffffffffffffffffffffffffffffffffffffff161415611ae257600781815481101515611ab057fe5b9060005260206000200160009054906101000a900473ffffffffffffffffffffffffffffffffffffffff169150611af4565b80806001019150506119c8565b600091505b50919050565b6000600660008373ffffffffffffffffffffffffffffffffffffffff1673ffffffffffffffffffffffffffffffffffffffff16815260200190815260200160002060010160019054906101000a900473ffffffffffffffffffffffffffffffffffffffff1673ffffffffffffffffffffffffffffffffffffffff163373ffffffffffffffffffffffffffffffffffffffff161480611c1057506000600660008473ffffffffffffffffffffffffffffffffffffffff1673ffffffffffffffffffffffffffffffffffffffff16815260200190815260200160002060010160019054906101000a900473ffffffffffffffffffffffffffffffffffffffff1673ffffffffffffffffffffffffffffffffffffffff16145b15611c1e5760019050611c23565b600090505b919050565b828054828255906000526020600020908101928215611ca1579160200282015b82811115611ca05782518260006101000a81548173ffffffffffffffffffffffffffffffffffffffff021916908373ffffffffffffffffffffffffffffffffffffffff16021790555091602001919060010190611c48565b5b509050611cae9190611d5e565b5090565b815481835581811115611cd957818360005260206000209182019101611cd89190611da1565b5b505050565b828054600181600116156101000203166002900490600052602060002090601f016020900481019282601f10611d1f57805160ff1916838001178555611d4d565b82800160010185558215611d4d579182015b82811115611d4c578251825591602001919060010190611d31565b5b509050611d5a9190611da1565b5090565b611d9e91905b80821115611d9a57600081816101000a81549073ffffffffffffffffffffffffffffffffffffffff021916905550600101611d64565b5090565b90565b611dc391905b80821115611dbf576000816000905550600101611da7565b5090565b905600a165627a7a7230582082325835cd13abe8c8c3a070aeb8dd5de8873b58407fa8607886eb3920d3bb2e0029",
  "source": "pragma solidity ^0.4.0;\n\ncontract Bank {\n    address BankManager;\n    uint256 public NoOfUsers=0;\n    uint256 public MinBalance;\n    uint256 public DepositLimit;\n    uint256 public WithdrawLimit;\n    uint256 public TransferLimit;\n\n     function Bank()  {\n        BankManager=msg.sender;\n    }\n\n    struct Account {\n        uint256 UserNo;\n        bool SecondUser;\n        address SecondUserAddress;\n        string UserName;\n        uint256[] FixedDeposit;\n        uint256 balance;\n        bool FirstUserActive;\n        bool SecondUserActive;\n        bool AccountExists;\n    }\n\n    mapping (address => Account) public Users;\n    address[]  UserList;\n\n}\n\n\ncontract UserAccountManage is Bank {\n    function UserAccountManage(uint256 w, uint256 x, uint256 y, uint256 z)  {\n        MinBalance=w;\n        DepositLimit=x;\n        WithdrawLimit=y;\n        TransferLimit=z;\n    }\n\n    /* Bank functions\n       WhichUser=1 is for the first user\n       WhichUser=2 is for the second user\n    */\n\n    function AddUser(address _add1, address _add2, string s1, string s2, uint256 x){\n        if (msg.sender!=BankManager){\n            revert();\n        }\n        if (x >= MinBalance){\n            var user=Users[_add1];\n            user.balance=x;\n            user.UserName=s1;\n            user.FirstUserActive=true;\n            user.AccountExists=true;\n            UserList.push(_add1)-1;\n            if (_add2!=0x0){\n                user.SecondUser=true;\n                user.SecondUserAddress=_add2;\n                //user.UserName.push(s2);\n                user.SecondUserActive=true;\n            }\n            else{\n                user.SecondUser=false;\n            }\n            NoOfUsers=NoOfUsers+1;\n            user.UserNo=NoOfUsers;\n        }\n        else{\n            revert();\n        }\n    }\n\n    function DeleteUser(uint256 WhichUser) returns (bool){\n        address temp=GetUser(WhichUser);\n        if (WhichUser==1){\n            Users[temp].FirstUserActive=false;\n        }\n        else{\n            Users[temp].SecondUserActive=false;\n        }\n        if(Users[temp].FirstUserActive==false && Users[temp].SecondUserActive==false){\n            uint256 i;\n            for (i=0; i<UserList.length;i++){\n                if (temp == UserList[i]){\n                    break;\n                }\n            }\n            UserList=Remove(i);\n            NoOfUsers=NoOfUsers-1;\n            return true;\n        }\n        else{\n            return false;\n        }\n\n    }\n\n    function CheckMinBalance(address index) view returns (bool){\n        if (Users[index].balance < MinBalance){\n            return false;\n        }\n        return true;\n    }\n\n    function Deposit(uint256 val, uint256 WhichUser) returns (bool){\n        if (val > DepositLimit){\n            return false;\n        }\n        address index=GetUser(WhichUser);\n        if (IsUserActive(index,WhichUser)){\n            Users[index].balance+=val;\n            return true;\n        }\n        else{\n            return false;\n        }\n    }\n\n    function Withdraw(uint256 val, uint256 WhichUser) returns (bool) {\n        address index=GetUser(WhichUser);\n        if (IsUserActive(index, WhichUser)==false && val > TransferLimit){\n            return false;\n        }\n        if (Users[index].balance >= val && val <= WithdrawLimit){\n            Users[index].balance-=val;\n        }\n        else{\n            return false;\n        }\n        if (CheckMinBalance(index)){\n            return true;\n        }\n        else{\n            Users[index].balance+=val;\n            return false;\n        }\n    }\n\n    function Transfer(uint256 val, uint256 WhichUser, address To) returns (bool){\n        address index=GetUser(WhichUser);\n        if (IsUserActive(index, WhichUser)==false){\n            return false;\n        }\n        if (Users[To].AccountExists && Users[index].balance>=val){\n            Users[index].balance-=val;\n            if (CheckMinBalance(index)){\n                Users[To].balance+=val;\n                return true;\n            }\n            else{\n                Users[index].balance+=val;\n                return false;\n            }\n        }\n    }\n\n    function AddFixedDeposit (uint256 WhichUser, uint256 val) returns (bool){\n        address index=GetUser(WhichUser);\n        if (IsUserActive(index, WhichUser)==false){\n            return false;\n        }\n        Users[index].FixedDeposit.push(val);\n    }\n\n    /* Account information */\n\n    function ListOfUsers() public returns (address[]){\n        if (msg.sender==BankManager){\n            return UserList;\n        }\n    }\n\n    function DisplayAccountBalance(address i) public returns(uint256){\n        /*address index=GetUser(WhichUser);\n        if (IsUserActive(index, WhichUser)==false){\n            return;\n        }*/\n        return Users[i].balance;\n    }\n\n    function DisplayFixedDeposits(uint256 WhichUser) public returns(uint256[]){\n        /*address index=GetUser(WhichUser);\n        if (IsUserActive(index, WhichUser)==false){\n            return;\n        }*/\n        return Users[msg.sender].FixedDeposit;\n    }\n\n    /* helper functions */\n\n    //function to get Account information from second user address\n    function GetAccount(address data) returns (address){\n        for (uint256 i=0; i<NoOfUsers; i++){\n            if (data == Users[UserList[i]].SecondUserAddress){\n                return UserList[i];\n                break;\n            }\n        }\n        return 0x0;\n    }\n\n    //function for first user confirmation\n    function FirstUserConfirmation(address i) view returns (bool){\n        if (msg.sender == i){\n            return true;\n        }\n        else{\n            return false;\n        }\n    }\n\n    //function for second user confirmation\n    function SecondUserConfirmation(address i) view returns (bool){\n        if (msg.sender == Users[i].SecondUserAddress || Users[i].SecondUserAddress == 0x0){\n            return true;\n        }\n        else{\n            return false;\n        }\n    }\n\n    //fuction to rescale array\n    function Remove(uint index)  returns(address[]) {\n        if (index >= UserList.length) return;\n\n        for (uint i = index; i<UserList.length-1; i++){\n            UserList[i] = UserList[i+1];\n        }\n        delete UserList[UserList.length-1];\n        UserList.length--;\n        return UserList;\n    }\n\n    //function to generate right User\n    function GetUser(uint256 i) returns (address){\n        address index;\n        if (i==1){\n            index=msg.sender;\n        }\n        else{\n            index=GetAccount(msg.sender);\n        }\n        return index;\n    }\n\n    //function to see if the user is active\n    function IsUserActive(address i, uint256 x) returns (bool){\n        if (x == 1){\n            if (Users[i].FirstUserActive == true){\n                return true;\n            }\n            else{\n                return false;\n            }\n        }\n        else{\n            if (Users[i].SecondUserActive == true){\n                return true;\n            }\n            else{\n                return false;\n            }\n        }\n    }\n}\n",
  "sourcePath": "/home/sankarshan/Test/Bank/contracts/Bank.sol",
  "compiler": {
    "name": "solc",
    "version": "0.4.24+commit.e67f0147.Emscripten.clang"
  },
  "schemaVersion": "2.0.0",
  "updatedAt": "2018-11-01T18:07:34.152Z"
}